:020000040800F2
:1000000000280020C5150008811400088714000886
:100010008D140008931400089914000800000000D3
:100020000000000000000000000000009F14000815
:10003000AB14000800000000B7140008C314000847
:100040000D1600080D1600080D1600080D16000804
:100050000D1600080D1600080D1600080D160008F4
:100060000D1600080D1600080D1600080D160008E4
:100070000D1600080D1600080D1600080D160008D4
:100080000D1600080D1600080D1600080D160008C4
:100090000D1600080D1600080D1600080D160008B4
:1000A0000D1600080D1600080D1600080D160008A4
:1000B000D11400080D160008000000000D160008FD
:1000C0000D16000800000000000000000D160008DA
:1000D000000000000D1600080D16000800000000CA
:1000E0000D1600080D1600080D160008000000008F
:1000F0000000000000000000000000000000000000
:0C01000000000000000000005FF808F1A3
:10010C0010B5054C237833B9044B13B10448AFF345
:10011C0000800123237010BD40000020000000006F
:10012C00342C000808B5034B1BB103490348AFF34B
:10013C00008008BD0000000044000020342C0008A2
:10014C0080B582B000AF78607B68092B00F28081AB
:10015C0001A252F823F000BF8D010008D501000860
:10016C001D02000865020008AD020008F502000837
:10017C003D03000885030008CD03000815040008A2
:10018C0000220121B44801F03EFD00220221B248B8
:10019C0001F039FD00220421AF4801F034FD0022AA
:1001AC000821AD4801F02FFD00221021AA4801F0D2
:1001BC002AFD00222021A84801F025FD0122402122
:1001CC00A54801F020FD43E101220121A24801F0E4
:1001DC001AFD00220221A04801F015FD0022042185
:1001EC009D4801F010FD012208219B4801F00BFDF8
:1001FC0001221021984801F006FD01222021964889
:10020C0001F001FD01224021934801F0FCFC1FE1AB
:10021C0000220121904801F0F6FC002202218E48B8
:10022C0001F0F1FC012204218B4801F0ECFC0022CE
:10023C000821894801F0E7FC00221021864801F0D2
:10024C00E2FC01222021844801F0DDFC0022402147
:10025C00814801F0D8FCFBE0002201217E4801F02E
:10026C00D2FC002202217C4801F0CDFC00220421AA
:10027C00794801F0C8FC00220821774801F0C3FC42
:10028C0001221021744801F0BEFC01222021724889
:10029C0001F0B9FC002240216F4801F0B4FCD7E01A
:1002AC00012201216C4801F0AEFC002202216A48B7
:1002BC0001F0A9FC00220421674801F0A4FC0122F2
:1002CC000821654801F09FFC01221021624801F0D1
:1002DC009AFC00222021604801F095FC002240216C
:1002EC005D4801F090FCB3E0002201215A4801F076
:1002FC008AFC01220221584801F085FC00220421CD
:10030C00554801F080FC00220821534801F07BFC89
:10031C0001221021504801F076FC002220214E4889
:10032C0001F071FC002240214B4801F06CFC8FE085
:10033C0000220121484801F066FC012202214648B6
:10034C0001F061FC00220421434801F05CFC002216
:10035C000821414801F057FC002210213E4801F0D1
:10036C0052FC002220213C4801F04DFC002240218F
:10037C00394801F048FC6BE000220121364801F0BD
:10038C0042FC00220221344801F03DFC00220421F1
:10039C00314801F038FC012208212F4801F033FCD0
:1003AC00012210212C4801F02EFC012220212A4888
:1003BC0001F029FC01224021274801F024FC47E0F0
:1003CC0000220121244801F01EFC002202212248B7
:1003DC0001F019FC002204211F4801F014FC00223A
:1003EC0008211D4801F00FFC002210211A4801F0D1
:1003FC000AFC00222021184801F005FC00224021B3
:10040C00154801F000FC23E000220121124801F004
:10041C00FAFB00220221104801F0F5FB0022042116
:10042C000D4801F0F0FB002208210B4801F0EBFB1A
:10043C0001221021084801F0E6FB00222021064889
:10044C0001F0E1FB00224021034801F0DCFB00BF7E
:10045C0000BF0837BD4680BD000C014080B500AF21
:10046C001E4B1B680C2B20D00C2B34DC0A2B02D01F
:10047C000B2B07D02FE0194B0B221A60642001F0D4
:10048C0045F828E0164B1B68012B21D1144B002298
:10049C001A6000222021134801F0B5FB0F4B0C22EF
:1004AC001A60642001F032F812E00D4B1B68012B2E
:1004BC0010D10B4B00221A6001222021094801F0B7
:1004CC00A2FB064B0B221A60642001F01FF801E01E
:1004DC0000BF00E000BF00BF80BD00BF7000002067
:1004EC00840000200008014080B400AF034B0122BF
:1004FC001A6000BFBD4680BC704700BF5C00002086
:10050C0080B400AF034B01221A6000BFBD4680BC13
:10051C00704700BF6000002080B400AF034B012285
:10052C001A6000BFBD4680BC704700BF640000204D
:10053C0080B500AF1F4B1B681F4A13601F4B1B6815
:10054C001C4A13604FF400411D4801F045FB034663
:10055C001A461A4B1A60184B1A68164B1B689A42AB
:10056C0026D1144B1A68154B1B689A4220D1154B97
:10057C001A68124B1B689A420ED0104B1B68114A1A
:10058C0013600E4B1B68002B12D1FFF7ADFF0E4B07
:10059C004FF496721A600BE00B4B1B68013B0A4A36
:1005AC001360094B1B68002B02D1064B01221A6009
:1005BC0000BF80BD040000200000002008000020C7
:1005CC0000100140240000203000002080B500AF56
:1005DC001F4B1B681F4A13601F4B1B681C4A136080
:1005EC004FF400511D4801F0F7FA03461A461A4B16
:1005FC001A60184B1A68164B1B689A4226D1144B7A
:10060C001A68154B1B689A4220D1154B1A68124B6D
:10061C001B689A420ED0104B1B68114A13600E4B8C
:10062C001B68002B12D1FFF76BFF0E4B4FF4967229
:10063C001A600BE00B4B1B68013B0A4A1360094B19
:10064C001B68002B02D1064B01221A6000BF80BD33
:10065C00100000200C0000201400002000100140AD
:10066C00280000203000002080B500AF1F4B1B6815
:10067C001F4A13601F4B1B681C4A13604FF48041C8
:10068C001D4801F0A9FA03461A461A4B1A60184B7A
:10069C001A68164B1B689A4226D1144B1A68154BD4
:1006AC001B689A4220D1154B1A68124B1B689A4250
:1006BC000ED0104B1B68114A13600E4B1B68002B9D
:1006CC0012D1FFF729FF0E4B4FF496721A600BE014
:1006DC000B4B1B68013B0A4A1360094B1B68002B30
:1006EC0002D1064B01221A6000BF80BD1C00002005
:1006FC001800002020000020001001402C000020D9
:10070C003000002080B500AF9D4B1B68092B00F218
:10071C00CA8101A252F823F04D0700089F07000878
:10072C00F10700084308000895080008E7080008CE
:10073C00390900089D090008ED0900083D0A000868
:10074C000020FFF7FDFC8F4B1B68012B05D18D4B57
:10075C0000221A608A4B00221A608B4B1B68012BFB
:10076C0008D1894B00221A60854B01221A60C820DF
:10077C0000F0B8FE854B1B68012B40F08181834B48
:10078C0000221A607E4B09221A60C82000F0AAFED3
:10079C0076E10120FFF7D4FC7A4B1B68012B05D1C5
:1007AC00784B00221A60764B00221A60764B1B683D
:1007BC00012B08D1744B00221A60714B02221A6073
:1007CC00C82000F08FFE714B1B68012B40F05A8142
:1007DC006E4B00221A606A4B00221A60C82000F08F
:1007EC0081FE4FE10220FFF7ABFC664B1B68012B2F
:1007FC0005D1644B00221A60614B00221A60624BD7
:10080C001B68012B08D1604B00221A605C4B032241
:10081C001A60C82000F066FE5C4B1B68012B40F090
:10082C0033815A4B00221A60554B01221A60C820A2
:10083C0000F058FE28E10320FFF782FC514B1B68A7
:10084C00012B05D14F4B00221A604D4B00221A6030
:10085C004D4B1B68012B08D14B4B00221A60484BA7
:10086C0004221A60C82000F03DFE484B1B68012B87
:10087C0040F00C81454B00221A60414B02221A6059
:10088C00C82000F02FFE01E10420FFF759FC3D4B7E
:10089C001B68012B05D13B4B00221A60384B002200
:1008AC001A60394B1B68012B08D1374B00221A6098
:1008BC00334B05221A60C82000F014FE334B1B6822
:1008CC00012B40F0E580314B00221A602C4B0322A7
:1008DC001A60C82000F006FEDAE00520FFF730FCB5
:1008EC00284B1B68012B05D1264B00221A60244B88
:1008FC0000221A60244B1B68012B08D1224B0022CA
:10090C001A601F4B06221A60C82000F0EBFD1F4B2B
:10091C001B68012B40F0BE801C4B00221A60184B48
:10092C0004221A60C82000F0DDFDB3E00620FFF7BA
:10093C0007FC144B1B68012B05D1124B00221A60CB
:10094C000F4B00221A60104B1B68012B08D10E4B69
:10095C0000221A600A4B07221A60C82000F0C2FD60
:10096C000A4B1B68012B40F09780084B00221A6041
:10097C00034B05221A60C82000F0B4FD8CE000BFC8
:10098C006C0000205C00002060000020640000204F
:10099C000720FFF7D5FB454B1B68012B05D1434BBB
:1009AC0000221A60424B00221A60424B1B68012B3A
:1009BC0008D1404B00221A603D4B08221A60C82017
:1009CC0000F090FD3C4B1B68012B67D13A4B002289
:1009DC001A60374B06221A60C82000F083FD5DE0D8
:1009EC000820FFF7ADFB314B1B68012B05D12F4BBA
:1009FC0000221A602E4B00221A602E4B1B68012B12
:100A0C0008D12C4B00221A60294B09221A60C820ED
:100A1C0000F068FD284B1B68012B41D1264B0022AE
:100A2C001A60234B07221A60C82000F05BFD37E0E8
:100A3C000920FFF785FB1D4B1B68012B05D11B4BB8
:100A4C0000221A601A4B00221A601A4B1B68012BE9
:100A5C0008D1184B00221A60154B00221A60C820CE
:100A6C0000F040FD144B1B68012B1BD1124B0022D4
:100A7C001A600F4B08221A60C82000F033FD11E0F9
:100A8C0000BF10E000BF0EE000BF0CE000BF0AE0AA
:100A9C0000BF08E000BF06E000BF04E000BF02E0BA
:100AAC0000BF00E000BF00BF80BD00BF5C000020A5
:100ABC006C000020600000206400002080B500AFB6
:100ACC00934B1B680D3B092B00F2208101A252F8BD
:100ADC0023F000BF090B00083B0B00086D0B00084E
:100AEC009F0B0008D10B0008030C0008330C000806
:100AFC00630C0008930C0008C30C00080020FFF7DF
:100B0C001FFB844B1B68012B02D1824B00221A6005
:100B1C00814B1B68012B40F0E6807F4B00221A6052
:100B2C007B4B0E221A60642000F0DCFCDBE0012021
:100B3C00FFF706FB774B1B68012B02D1754B00228C
:100B4C001A60754B1B68012B40F0CF80724B002252
:100B5C001A606F4B0F221A60642000F0C3FCC4E0D3
:100B6C000220FFF7EDFA6B4B1B68012B02D1694B8E
:100B7C0000221A60684B1B68012B40F0B880664B52
:100B8C0000221A60624B10221A60642000F0AAFC4A
:100B9C00ADE00320FFF7D4FA5E4B1B68012B02D1AA
:100BAC005C4B00221A605C4B1B68012B40F0A1804F
:100BBC00594B00221A60564B11221A60642000F027
:100BCC0091FC96E00420FFF7BBFA524B1B68012BFB
:100BDC0002D1504B00221A604F4B1B68012B40F086
:100BEC008A804D4B00221A60494B12221A606420F5
:100BFC0000F078FC7FE00520FFF7A2FA454B1B685C
:100C0C00012B02D1434B00221A60434B1B68012B72
:100C1C0073D1414B00221A603D4B12221A606420A2
:100C2C0000F060FC69E00620FFF78AFA394B1B687C
:100C3C00012B02D1374B00221A60374B1B68012B5A
:100C4C005DD1354B00221A60314B14221A6064209E
:100C5C0000F048FC53E00720FFF772FA2D4B1B689D
:100C6C00012B02D12B4B00221A602B4B1B68012B42
:100C7C0047D1294B00221A60254B15221A6064209B
:100C8C0000F030FC3DE00820FFF75AFA214B1B68BE
:100C9C00012B02D11F4B00221A601F4B1B68012B2A
:100CAC0031D11D4B00221A60194B16221A60642098
:100CBC0000F018FC27E00920FFF742FA154B1B68DF
:100CCC00012B02D1134B00221A60134B1B68012B12
:100CDC001BD1114B00221A600D4B0D221A6064209F
:100CEC0000F000FC11E000BF10E000BF0EE000BF00
:100CFC000CE000BF0AE000BF08E000BF06E000BF48
:100D0C0004E000BF02E000BF00E000BF00BF80BDF8
:100D1C006C000020800000206800002080B500AF2F
:100D2C009E4B1B68173B0A2B00F2148201A252F84F
:100D3C0023F000BF870D0008C70D0008270E000820
:100D4C00870E0008E70E0008470F0008C10F0008C7
:100D5C00211000087F100008DD1000086D0D000840
:100D6C000020FFF7EDF98D4B00221A60C82000F02F
:100D7C00CDFB8B4B0B221A60ECE18A4B1B68012BD1
:100D8C0005D1884B00221A60844B21221A60864BB5
:100D9C001B68012B05D1844B00221A600020FFF741
:100DAC00CFF9824B1B68012B40F0C1817F4B002295
:100DBC001A607A4B00221A60B9E17A4B1B68012B3E
:100DCC0005D1784B00221A60744B21221A60784BA3
:100DDC001B68012B0BD1764B00221A600120FFF708
:100DEC00AFF96E4B17221A60642000F08FFB6E4B2C
:100DFC001B68012B05D16C4B00221A60674B01223A
:100E0C001A606A4B1B68012B40F09381674B0022E0
:100E1C001A60624B01221A608BE1624B1B68012B3A
:100E2C0005D1604B00221A605C4B21221A60604B8A
:100E3C001B68012B0BD15E4B00221A600220FFF7BE
:100E4C007FF9564B18221A60642000F05FFB564B5A
:100E5C001B68012B05D1544B00221A604F4B022208
:100E6C001A60524B1B68012B40F065814F4B0022DE
:100E7C001A604A4B02221A605DE14A4B1B68012B37
:100E8C0005D1484B00221A60444B21221A60484B72
:100E9C001B68012B0BD1464B00221A600320FFF775
:100EAC004FF93E4B19221A60642000F02FFB3E4B89
:100EBC001B68012B05D13C4B00221A60374B0322D7
:100ECC001A603A4B1B68012B40F03781374B0022DC
:100EDC001A60324B03221A602FE1324B1B68012B34
:100EEC0005D1304B00221A602C4B21221A60304B5A
:100EFC001B68012B0BD12E4B00221A600420FFF72C
:100F0C001FF9264B1A221A60642000F0FFFA264BB8
:100F1C001B68012B05D1244B00221A601F4B0422A5
:100F2C001A60224B1B68012B40F009811F4B0022D9
:100F3C001A601A4B04221A6001E11A4B1B68012B30
:100F4C0005D1184B00221A60144B21221A60184B41
:100F5C001B68012B0BD1164B00221A600520FFF7E2
:100F6C00EFF80E4B1B221A60642000F0CFFA0E4BE8
:100F7C001B68012B05D10C4B00221A60074B052274
:100F8C001A600A4B1B68012B40F0DB80074B0022D8
:100F9C001A60024B05221A60D3E000BF6C000020DF
:100FAC00700000205C000020600000206400002025
:100FBC0084000020684B1B68012B05D1664B002276
:100FCC001A60664B21221A60654B1B68012B0BD1F2
:100FDC00634B00221A600620FFF7B2F85F4B1C220D
:100FEC001A60642000F092FA5E4B1B68012B05D14D
:100FFC005C4B00221A60594B06221A605A4B1B6834
:10100C00012B40F0A080584B00221A60534B062253
:10101C001A6098E0504B1B68012B05D14E4B0022F7
:10102C001A604E4B21221A604D4B1B68012B0BD1C1
:10103C004B4B00221A600720FFF782F8474B1D220A
:10104C001A60642000F062FA464B1B68012B05D134
:10105C00444B00221A60414B07221A60424B1B681A
:10106C00012B72D1404B00221A603C4B07221A60B4
:10107C006BE0394B1B68012B05D1374B00221A60F2
:10108C00364B21221A60364B1B68012B0BD1344B8B
:10109C0000221A600820FFF753F8304B1E221A600A
:1010AC00642000F033FA2F4B1B68012B05D12D4B1C
:1010BC0000221A60294B08221A602B4B1B68012B4B
:1010CC0045D1294B00221A60244B08221A603EE0BD
:1010DC00214B1B68012B05D11F4B00221A601F4BA3
:1010EC0021221A601E4B1B68012B0BD11C4B0022BA
:1010FC001A600920FFF724F8184B1F221A6064208D
:10110C0000F004FA174B1B68012B05D1154B00227C
:10111C001A60124B09221A60134B1B68012B18D151
:10112C00114B00221A600D4B09221A6011E000BF0E
:10113C0010E000BF0EE000BF0CE000BF0AE000BFF3
:10114C0008E000BF06E000BF04E000BF02E000BF03
:10115C0000E000BF00BF80BD5C0000206C000020E0
:10116C0084000020600000206400002080B500AFE7
:10117C0000F048FA00F01CF800F0A2F800F054F867
:10118C00084801F091F9084B00221A60074B0A221B
:10119C001A60FFF7B7FAFFF761F9FFF78FFCFFF75B
:1011AC00BDFDF6E78C0000206C00002070000020D4
:1011BC0080B590B000AF07F1180328220021184623
:1011CC0001F02AFD3B1D00221A605A609A60DA6019
:1011DC001A610223BB610123BB621023FB62002353
:1011EC007B6307F11803184600F026FD0346002B1D
:1011FC0001D000F0E3F80F237B600023BB600023D9
:10120C00FB6000233B6100237B613B1D00211846E2
:10121C0000F092FF0346002B01D000F0CFF800BF86
:10122C004037BD4680BD000080B586B000AF07F1E9
:10123C00080300221A605A609A60DA603B4600226A
:10124C001A605A601D4B4FF080421A601B4B41F6DE
:10125C003F725A60194B00229A60184B0922DA60CF
:10126C00164B00221A61154B00229A61134801F0AB
:10127C00CBF80346002B01D000F0A0F84FF48053BC
:10128C00BB6007F1080319460C4801F061FA0346EC
:10129C00002B01D000F092F800233B6000237B6010
:1012AC003B461946054801F029FC0346002B01D0AA
:1012BC0000F084F800BF1837BD4680BD8C000020BC
:1012CC0080B588B000AF07F1100300221A605A6095
:1012DC009A60DA602D4B9B692C4A43F010039361A2
:1012EC002A4B9B6903F01003FB60FB68274B9B693F
:1012FC00264A43F004039361244B9B6903F00403D7
:10130C00BB60BB68214B9B69204A43F00803936187
:10131C001E4B9B6903F008037B607B680022202135
:10132C001B4800F070FC00227F211A4800F06BFC77
:10133C004FF460433B6100237B610123BB6107F1E8
:10134C0010031946144800F0CDFA20233B61012309
:10135C007B610023BB610223FB6107F1100319467B
:10136C000B4800F0BFFA7F233B6101237B61002314
:10137C00BB610223FB6107F110031946054800F01D
:10138C00B1FA00BF2037BD4680BD00BF001002403F
:10139C0000080140000C01400010014080B582B0F3
:1013AC0000AF786000F0C6F8FFF7C2F8FFF70EF94F
:1013BC00FFF75AF900BF0837BD4680BD80B400AFB7
:1013CC0072B600BFFEE7000080B485B000AF154BCD
:1013DC009B69144A43F001039361124B9B6903F020
:1013EC000103BB60BB680F4BDB690E4A43F08053B3
:1013FC00D3610C4BDB6903F080537B607B680A4B39
:10140C005B68FB60FB6823F0E063FB60FB6843F008
:10141C008063FB60044AFB68536000BF1437BD4611
:10142C0080BC7047001002400000014080B584B0C1
:10143C0000AF78607B681B68B3F1804F13D10C4B05
:10144C00DB690B4A43F00103D361094BDB6903F001
:10145C000103FB60FB68002200211C2000F00BFA4A
:10146C001C2000F024FA00BF1037BD4680BD00BF21
:10147C000010024080B400AFFEE780B400AFFEE77E
:10148C0080B400AFFEE780B400AFFEE780B400AFDD
:10149C00FEE780B400AF00BFBD4680BC704780B48F
:1014AC0000AF00BFBD4680BC704780B400AF00BF2A
:1014BC00BD4680BC704780B500AF00F0E9F800BFB6
:1014CC0080BD000080B500AF024801F039F800BFC4
:1014DC0080BD00BF8C00002080B400AF00BFBD46B3
:1014EC0080BC704780B483B000AF7860054A7B68DD
:1014FC001360054B00221A6000BF0C37BD4680BC40
:10150C00704700BF740000208000002080B483B0BE
:10151C0000AF7860054A7B681360054B00221A60A7
:10152C0000BF0C37BD4680BC704700BF7800002060
:10153C008400002080B400AF194B1B68002B04DD25
:10154C00174B1B68013B164A1360154B1B68002B8D
:10155C0002DC144B01221A60134B1B68002B04DDB8
:10156C00114B1B68013B104A13600F4B1B68002B7F
:10157C0002DC0E4B01221A600D4B1B68002B04DDA4
:10158C000B4B1B68013B0A4A1360094B1B68002B71
:10159C0002DC084B01221A6000BFBD4680BC7047BC
:1015AC0074000020800000207800002084000020BF
:1015BC007C000020880000200C480D490D4A0023B7
:1015CC0002E0D458C4500433C4188C42F9D30A4AEC
:1015DC000A4C002301E013600432A242FBD3FFF754
:1015EC007BFF01F0F5FAFFF7C1FD7047000000200A
:1015FC0040000020742C000840000020D80000207F
:10160C00FEE7000080B500AF084B1B68074A43F0AB
:10161C0010031360032000F023F90F2000F008F8EA
:10162C00FFF7D2FE0023184680BD00BF0020024009
:10163C0080B582B000AF7860124B1A68124B1B78E1
:10164C0019464FF47A73B3FBF1F3B2FBF3F318467C
:10165C0000F03BF90346002B01D001230EE07B6820
:10166C000F2B0AD8002279684FF0FF3000F003F9F5
:10167C00064A7B681360002300E0012318460837F4
:10168C00BD4680BD340000203C0000203800002006
:10169C0080B400AF054B1B781A46054B1B681344EE
:1016AC00034A136000BFBD4680BC70473C0000205D
:1016BC00D400002080B400AF024B1B681846BD4616
:1016CC0080BC7047D400002080B485B000AF786037
:1016DC007B6803F00703FB600C4BDB68BB60BA68EC
:1016EC004FF6FF031340BB60FB681A02BB68134341
:1016FC0043F0BF6343F40033BB60044ABB68D36060
:10170C0000BF1437BD4680BC704700BF00ED00E041
:10171C0080B400AF044BDB681B0A03F007031846C8
:10172C00BD4680BC704700BF00ED00E080B483B0C4
:10173C0000AF0346FB7197F90730002B0BDBFB79ED
:10174C0003F01F02064997F907305B09012000FAE4
:10175C0002F241F8232000BF0C37BD4680BC704715
:10176C0000E100E080B483B000AF03463960FB7148
:10177C0097F90730002B0ADB3B68DAB20C4997F972
:10178C0007301201D2B20B4483F800230AE03B6805
:10179C00DAB20849FB7903F00F03043B1201D2B211
:1017AC000B441A7600BF0C37BD4680BC704700BF97
:1017BC0000E100E000ED00E080B489B000AFF8601B
:1017CC00B9607A60FB6803F00703FB61FB69C3F146
:1017DC000703042B28BF0423BB61FB690433062BCE
:1017EC0002D9FB69033B00E000237B614FF0FF3221
:1017FC00BB6902FA03F3DA43BB681A407B699A406F
:10180C004FF0FF317B6901FA03F3D9437B680B403E
:10181C00134318462437BD4680BC704780B582B050
:10182C0000AF78607B68013BB3F1807F01D301236B
:10183C000FE00A4A7B68013B53600F214FF0FF30E9
:10184C00FFF790FF054B00229A60044B07221A60A9
:10185C00002318460837BD4680BD00BF10E000E0ED
:10186C0080B582B000AF78607868FFF72DFF00BFBD
:10187C000837BD4680BD80B586B000AF0346B96061
:10188C007A60FB7300237B61FFF742FF78617A6813
:10189C00B9687869FFF790FF024697F90F30114647
:1018AC001846FFF75FFF00BF1837BD4680BD80B5F7
:1018BC0082B000AF0346FB7197F907301846FFF76B
:1018CC0035FF00BF0837BD4680BD80B582B000AF84
:1018DC0078607868FFF7A2FF034618460837BD46C4
:1018EC0080BD000080B48BB000AF786039600023FD
:1018FC007B6200233B6248E101227B6A02FA03F31C
:10190C00FB613B681B68FA691340BB61BA69FB69F0
:10191C009A4240F037813B685B68A34A93425ED0A1
:10192C00A14A934275D8A14A934258D09F4A9342F8
:10193C006FD89F4A934252D09D4A934269D89D4A90
:10194C0093424CD09B4A934263D89B4A934246D0D5
:10195C00994A93425DD8122B2AD8122B59D801A23E
:10196C0052F823F0EB190008C5190008D719000824
:10197C00191A00081F1A00081F1A00081F1A00085D
:10198C001F1A00081F1A00081F1A00081F1A000847
:10199C001F1A00081F1A00081F1A00081F1A000837
:1019AC001F1A00081F1A0008CD190008E1190008B9
:1019BC00824A934213D02CE03B68DB683B6229E0FF
:1019CC003B68DB6804333B6224E03B68DB6808332C
:1019DC003B621FE03B68DB680C333B621AE03B6800
:1019EC009B68002B02D104233B6213E03B689B688D
:1019FC00012B05D108233B627B68FA691A6109E067
:101A0C0008233B627B68FA695A6103E000233B625E
:101A1C0000E000BFBB69FF2B01D87B6801E07B684D
:101A2C0004337B61BB69FF2B02D87B6A9B0002E00D
:101A3C007B6A083B9B003B617B691A680F213B6901
:101A4C0001FA03F3DB431A40396A3B6901FA03F3E9
:101A5C001A437B691A603B685B6803F08053002B68
:101A6C0000F09080564B9B69554A43F001039361FB
:101A7C00534B9B6903F00103BB60BB68514A7B6A03
:101A8C009B08023352F82330FB607B6A03F003039C
:101A9C009B000F2202FA03F3DB43FA681340FB604E
:101AAC007B68494A93420DD07B68484A934207D0E1
:101ABC007B68474A934201D1022304E0032302E0EE
:101ACC00012300E000237A6A02F0030292009340A3
:101ADC00FA681343FB603B497B6A9B080233FA6844
:101AEC0041F823203B685B6803F48033002B06D05D
:101AFC00384B1A683749BB6913430B6006E0354B0A
:101B0C001A68BB69DB43334913400B603B685B6865
:101B1C0003F40033002B06D02E4B5A682D49BB69B9
:101B2C0013434B6006E02B4B5A68BB69DB432949D6
:101B3C0013404B603B685B6803F48013002B06D0AA
:101B4C00244B9A682349BB6913438B6006E0214BF5
:101B5C009A68BB69DB431F4913408B603B685B6829
:101B6C0003F40013002B06D01A4BDA681949BB6931
:101B7C001343CB6006E0174BDA68BB69DB431549AE
:101B8C001340CB607B6A01337B623B681A687B6ACB
:101B9C0022FA03F3002B7FF4AFAE00BF00BF2C374B
:101BAC00BD4680BC704700BF0000321000003110F1
:101BBC000000221000002110000012100000111073
:101BCC00001002400000014000080140000C0140E0
:101BDC00001001400004014080B485B000AF786073
:101BEC000B467B807B689A687B881340002B02D065
:101BFC000123FB7301E00023FB73FB7B18461437B6
:101C0C00BD4680BC704780B483B000AF78600B4693
:101C1C007B8013467B707B78002B03D07A887B68A3
:101C2C001A6103E07B881A047B681A6100BF0C37C9
:101C3C00BD4680BC7047000080B586B000AF7860B0
:101C4C007B68002B01D101236CE27B681B6803F0DD
:101C5C000103002B00F08780924B5B6803F00C03B0
:101C6C00042B0CD08F4B5B6803F00C03082B12D1A8
:101C7C008C4B5B6803F48033B3F5803F0BD1894BFD
:101C8C001B6803F40033002B6CD07B685B68002B63
:101C9C0068D1012346E27B685B68B3F5803F06D1CF
:101CAC00804B1B687F4A43F4803313602EE07B68C3
:101CBC005B68002B0CD17B4B1B687A4A23F4803376
:101CCC001360784B1B68774A23F4802313601DE064
:101CDC007B685B68B3F5A02F0CD1724B1B68714A03
:101CEC0043F4802313606F4B1B686E4A43F48033BC
:101CFC0013600BE06B4B1B686A4A23F48033136050
:101D0C00684B1B68674A23F4802313607B685B680D
:101D1C00002B13D0FFF7CEFC386108E0FFF7CAFCAC
:101D2C0002463B69D31A642B01D90323FAE15D4BBC
:101D3C001B6803F40033002BF0D014E0FFF7BAFC5F
:101D4C00386108E0FFF7B6FC02463B69D31A642BF6
:101D5C0001D90323E6E1534B1B6803F40033002B3A
:101D6C00F0D100E000BF7B681B6803F00203002B7E
:101D7C0063D04C4B5B6803F00C03002B0BD0494B2E
:101D8C005B6803F00C03082B1CD1464B5B6803F417
:101D9C008033002B16D1434B1B6803F00203002B3E
:101DAC0005D07B681B69012B01D00123BAE13D4BA7
:101DBC001B6823F0F8027B685B69DB00394913432D
:101DCC000B603AE07B681B69002B20D0364B01225C
:101DDC001A60FFF76FFC386108E0FFF76BFC0246F6
:101DEC003B69D31A022B01D903239BE12D4B1B68B2
:101DFC0003F00203002BF0D02A4B1B6823F0F802EF
:101E0C007B685B69DB00274913430B6015E0264BAD
:101E1C0000221A60FFF74EFC386108E0FFF74AFC1D
:101E2C0002463B69D31A022B01D903237AE11D4BDD
:101E3C001B6803F00203002BF0D17B681B6803F0D6
:101E4C000803002B3AD07B689B69002B19D0174BE9
:101E5C0001221A60FFF72EFC386108E0FFF72AFC1C
:101E6C0002463B69D31A022B01D903235AE10D4BCD
:101E7C005B6A03F00203002BF0D0012000F0A6FAFD
:101E8C001CE00A4B00221A60FFF714FC38610FE0CB
:101E9C00FFF710FC02463B69D31A022B08D9032327
:101EAC0040E100BF00100240000042428004424268
:101EBC009E4B5B6A03F00203002BE9D17B681B6825
:101ECC0003F00403002B00F0A6800023FB75974B56
:101EDC00DB6903F08053002B0DD1944BDB69934AE3
:101EEC0043F08053D361914BDB6903F08053BB60AB
:101EFC00BB680123FB758E4B1B6803F48073002BAE
:101F0C0018D18B4B1B688A4A43F480731360FFF71C
:101F1C00D1FB386108E0FFF7CDFB02463B69D31AD1
:101F2C00642B01D90323FDE0814B1B6803F4807300
:101F3C00002BF0D07B68DB68012B06D17B4B1B6A36
:101F4C007A4A43F0010313622DE07B68DB68002BB7
:101F5C000CD1764B1B6A754A23F001031362734B49
:101F6C001B6A724A23F0040313621CE07B68DB6873
:101F7C00052B0CD16D4B1B6A6C4A43F004031362A6
:101F8C006A4B1B6A694A43F0010313620BE0674B0F
:101F9C001B6A664A23F001031362644B1B6A634A93
:101FAC0023F0040313627B68DB68002B15D0FFF76A
:101FBC0081FB38610AE0FFF77DFB02463B69D31ACF
:101FCC0041F28832934201D90323ABE0574B1B6A91
:101FDC0003F00203002BEED014E0FFF76BFB38612B
:101FEC000AE0FFF767FB02463B69D31A41F28832DD
:101FFC00934201D9032395E04C4B1B6A03F0020377
:10200C00002BEED1FB7D012B05D1484BDB69474AF8
:10201C0023F08053D3617B68DB69002B00F0818057
:10202C00424B5B6803F00C03082B61D07B68DB69C7
:10203C00022B46D13F4B00221A60FFF73BFB386165
:10204C0008E0FFF737FB02463B69D31A022B01D994
:10205C00032367E0354B1B6803F00073002BF0D1B2
:10206C007B681B6AB3F5803F08D1304B5B6823F467
:10207C0000327B689B682D4913434B602B4B5B688C
:10208C0023F474127B68196A7B685B6A0B432749DB
:10209C0013434B60274B01221A60FFF70BFB38618F
:1020AC0008E0FFF707FB02463B69D31A022B01D964
:1020BC00032337E01D4B1B6803F00073002BF0D09B
:1020CC002FE01C4B00221A60FFF7F4FA386108E08D
:1020DC00FFF7F0FA02463B69D31A022B01D903230E
:1020EC0020E0124B1B6803F00073002BF0D118E0BA
:1020FC007B68DB69012B01D1012313E00B4B5B687F
:10210C00FB60FB6803F480327B681B6A9A4206D141
:10211C00FB6803F470127B685B6A9A4201D001235E
:10212C0000E0002318461837BD4680BD0010024061
:10213C00007000406000424280B584B000AF78600F
:10214C0039607B68002B01D10123D0E06A4B1B68FE
:10215C0003F007033A689A4210D9674B1B6823F0C7
:10216C00070265493B6813430B60634B1B6803F024
:10217C0007033A689A4201D00123B8E07B681B68D8
:10218C0003F00203002B20D07B681B6803F00403D0
:10219C00002B05D0594B5B68584A43F4E0635360FD
:1021AC007B681B6803F00803002B05D0534B5B685E
:1021BC00524A43F460535360504B5B6823F0F00277
:1021CC007B689B684D4913434B607B681B6803F02D
:1021DC000103002B40D07B685B68012B07D1474B78
:1021EC001B6803F40033002B15D101237FE07B68BF
:1021FC005B68022B07D1414B1B6803F00073002B6B
:10220C0009D1012373E03D4B1B6803F00203002B43
:10221C0001D101236BE0394B5B6823F003027B682F
:10222C005B68364913434B60FFF744FAF8600AE0E9
:10223C00FFF740FA0246FB68D31A41F28832934208
:10224C0001D9032353E02D4B5B6803F00C027B6830
:10225C005B689B009A42EBD1274B1B6803F007038A
:10226C003A689A4210D2244B1B6823F00702224989
:10227C003B6813430B60204B1B6803F007033A6861
:10228C009A4201D0012332E07B681B6803F00403FF
:10229C00002B08D0194B5B6823F4E0627B68DB6889
:1022AC00164913434B607B681B6803F00803002B33
:1022BC0009D0124B5B6823F460527B681B69DB000E
:1022CC000E4913434B6000F021F802460B4B5B6840
:1022DC001B0903F00F030A49CB5C22FA03F3094AEA
:1022EC001360094B1B681846FFF7A2F90023184628
:1022FC001037BD4680BD00BF0020024000100240D8
:10230C005C2C0008340000203800002090B48AB007
:10231C0000AF2A4B3C1D0FCB84E80F0040F2012389
:10232C003B800023FB610023BB6100237B62002305
:10233C007B6100233B62224B5B68FB61FB6903F012
:10234C000C03042B02D0082B03D02DE01D4B3B6259
:10235C002DE0FB699B0C03F00F0307F128021344DB
:10236C0013F8243C7B61FB6903F48033002B13D0FE
:10237C00134B5B685B0C03F0010307F12802134459
:10238C0013F8283CBB617B690E4A02FB03F2BB6964
:10239C00B2FBF3F37B6204E07B690B4A02FB03F3B1
:1023AC007B627B6A3B6202E0064B3B6200BF3B6A8E
:1023BC0018462837BD4690BC704700BF4C2C00080F
:1023CC000010024000127A0000093D0080B485B074
:1023DC0000AF78600A4B1B680A4AA2FB03235B0A16
:1023EC007A6802FB03F3FB6000BFFB685A1EFA60BD
:1023FC00002BF9D100BF00BF1437BD4680BC70471D
:10240C0034000020D34D621080B582B000AF7860EC
:10241C007B68002B01D1012341E07B6893F83D30B0
:10242C00DBB2002B06D17B68002283F83C20786855
:10243C00FEF7FCFF7B68022283F83D207B681A685C
:10244C007B6804331946104600F06AFA7B68012257
:10245C0083F846207B68012283F83E207B680122AA
:10246C0083F83F207B68012283F840207B6801229F
:10247C0083F841207B68012283F842207B6801228B
:10248C0083F843207B68012283F844207B68012277
:10249C0083F845207B68012283F83D2000231846F1
:1024AC000837BD4680BD000080B485B000AF7860B1
:1024BC007B6893F83D30DBB2012B01D0012335E072
:1024CC007B68022283F83D207B681B68DA687B6896
:1024DC001B6842F00102DA607B681B68164A934263
:1024EC0009D07B681B68B3F1804F04D07B681B68F4
:1024FC00124A934211D17B681B689B6803F0070357
:10250C00FB60FB68062B10D07B681B681A687B6825
:10251C001B6842F001021A6007E07B681B681A68AE
:10252C007B681B6842F001021A60002318461437BE
:10253C00BD4680BC704700BF002C01400004004029
:10254C0080B582B000AF78607B681B681B6903F0B4
:10255C000203022B22D17B681B68DB6803F00203A9
:10256C00022B1BD17B681B686FF002021A617B681F
:10257C0001221A777B681B689B6903F00303002B0D
:10258C0003D0786800F0B1F905E0786800F0A4F9A0
:10259C00786800F0B3F97B6800221A777B681B68B7
:1025AC001B6903F00403042B22D17B681B68DB68D6
:1025BC0003F00403042B1BD17B681B686FF004022F
:1025CC001A617B6802221A777B681B689B6903F48B
:1025DC004073002B03D0786800F087F905E0786829
:1025EC0000F07AF9786800F089F97B6800221A7794
:1025FC007B681B681B6903F00803082B22D17B68DE
:10260C001B68DB6803F00803082B1BD17B681B6875
:10261C006FF008021A617B6804221A777B681B68CA
:10262C00DB6903F00303002B03D0786800F05DF93D
:10263C0005E0786800F050F9786800F05FF97B6885
:10264C0000221A777B681B681B6903F01003102BA0
:10265C0022D17B681B68DB6803F01003102B1BD1A5
:10266C007B681B686FF010021A617B6808221A776E
:10267C007B681B68DB6903F44073002B03D078681C
:10268C0000F033F905E0786800F026F9786800F07E
:10269C0035F97B6800221A777B681B681B6903F08D
:1026AC000103012B0ED17B681B68DB6803F001036F
:1026BC00012B07D17B681B686FF001021A617868E7
:1026CC00FEF76CFE7B681B681B6903F08003802B94
:1026DC000ED17B681B68DB6803F08003802B07D16D
:1026EC007B681B686FF080021A61786800F067FAEB
:1026FC007B681B681B6903F04003402B0ED17B6881
:10270C001B68DB6803F04003402B07D17B681B6818
:10271C006FF040021A61786800F0F9F87B681B686A
:10272C001B6903F02003202B0ED17B681B68DB6830
:10273C0003F02003202B07D17B681B686FF020026D
:10274C001A61786800F032FA00BF0837BD4680BDC8
:10275C0080B584B000AF786039607B6893F83C300A
:10276C00012B01D10223B3E07B68012283F83C20CA
:10277C007B68022283F83D207B681B689B68FB60AA
:10278C00FB6823F07703FB60FB6823F47F43FB605B
:10279C007B681B68FA689A603B681B68B3F5005F3E
:1027AC003ED0B3F5005F00F28780B3F5805F00F098
:1027BC008580B3F5805F7FD8702B1AD0702B7BD8B7
:1027CC00602B50D0602B77D8502B3CD0502B73D82B
:1027DC00402B58D0402B6FD8302B64D0302B6BD87B
:1027EC00202B60D0202B67D8002B5CD0102B5AD01C
:1027FC0062E07B6818683B6899683B685A683B687C
:10280C00DB6800F05CF97B681B689B68FB60FB680D
:10281C0043F07703FB607B681B68FA689A604EE0B4
:10282C007B6818683B6899683B685A683B68DB684A
:10283C0000F045F97B681B689A687B681B6842F45A
:10284C0080429A603BE07B6818683B6859683B683B
:10285C00DB681A4600F0BCF87B681B6850211846F0
:10286C0000F013F92BE07B6818683B6859683B68EB
:10287C00DB681A4600F0DAF87B681B6860211846A2
:10288C0000F003F91BE07B6818683B6859683B68EB
:10289C00DB681A4600F09CF87B681B6840211846E0
:1028AC0000F0F3F80BE07B681A683B681B6819466C
:1028BC00104600F0EAF802E000BF00E000BF7B68C1
:1028CC00012283F83D207B68002283F83C20002302
:1028DC0018461037BD4680BD80B483B000AF786019
:1028EC0000BF0C37BD4680BC704780B483B000AFCE
:1028FC00786000BF0C37BD4680BC704780B483B095
:10290C0000AF786000BF0C37BD4680BC704780B408
:10291C0083B000AF786000BF0C37BD4680BC7047F9
:10292C0080B485B000AF786039607B681B68FB6051
:10293C007B68254A934207D07B68B3F1804F03D064
:10294C007B68224A934208D1FB6823F07003FB603A
:10295C003B685B68FA681343FB607B681A4A9342D6
:10296C0007D07B68B3F1804F03D07B68174A934242
:10297C0008D1FB6823F44073FB603B68DB68FA68A2
:10298C001343FB60FB6823F080023B685B691343D5
:10299C00FB607B68FA681A603B689A687B68DA624D
:1029AC003B681A687B689A627B68074A934203D13A
:1029BC003B681A697B681A637B6801225A6100BF05
:1029CC001437BD4680BC7047002C01400004004009
:1029DC0080B487B000AFF860B9607A60FB681B6A9E
:1029EC007B61FB681B6A23F00102FB681A62FB68BF
:1029FC009B693B613B6923F0F0033B617B681B01E6
:102A0C003A6913433B617B6923F00A037B617A6962
:102A1C00BB6813437B61FB683A699A61FB687A690E
:102A2C001A6200BF1C37BD4680BC704780B487B0AB
:102A3C0000AFF860B9607A60FB681B6A23F0100283
:102A4C00FB681A62FB689B697B61FB681B6A3B61D4
:102A5C007B6923F470437B617B681B037A691343A6
:102A6C007B613B6923F0A0033B61BB681B013A69A6
:102A7C0013433B61FB687A699A61FB683A691A6295
:102A8C0000BF1C37BD4680BC704780B485B000AF1A
:102A9C00786039607B689B68FB60FB6823F070038F
:102AAC00FB603A68FB68134343F00703FB607B68E9
:102ABC00FA689A6000BF1437BD4680BC704780B47A
:102ACC0087B000AFF860B9607A603B60FB689B68C8
:102ADC007B617B6923F47F437B613B681A027B68D3
:102AEC001A43BB6813437A6913437B61FB687A69A9
:102AFC009A6000BF1C37BD4680BC704780B485B05F
:102B0C0000AF786039607B6893F83C30012B01D1C1
:102B1C00022341E07B68012283F83C207B6802227F
:102B2C0083F83D207B681B685B68FB607B681B68D7
:102B3C009B68BB60FB6823F07003FB603B681B6801
:102B4C00FA681343FB607B681B68FA685A607B6801
:102B5C001B68144A934209D07B681B68B3F1804F01
:102B6C0004D07B681B68104A93420CD1BB6823F0DD
:102B7C008003BB603B685B68BA681343BB607B68CF
:102B8C001B68BA689A607B68012283F83D207B68D9
:102B9C00002283F83C20002318461437BD4680BC25
:102BAC00704700BF002C01400004004080B483B08B
:102BBC0000AF786000BF0C37BD4680BC704780B456
:102BCC0083B000AF786000BF0C37BD4680BC704747
:102BDC0070B500260C4D0D4C641BA410A64209D1F7
:102BEC0000F022F800260A4D0A4C641BA410A642E1
:102BFC0005D170BD55F8043B98470136EEE755F802
:102C0C00043B98470136F2E76C2C00086C2C00084A
:102C1C006C2C0008702C000803460244934200D12F
:102C2C00704703F8011BF9E7F8B500BFF8BC08BC06
:102C3C009E467047F8B500BFF8BC08BC9E4670476E
:102C4C0002030405060708090A0B0C0D0E0F1010E1
:102C5C000000000000000000010203040607080940
:042C6C00310100082A
:042C70000D0100084A
:102C7400010000000100000001000000010000004C
:102C8400010000000100000001000000010000003C
:102C9400010000000100000001000000010000002C
:102CA4002C0100000024F4001000000001000000CA
:04000005080015C515
:00000001FF
